scriptPubKey format:
OP_3 pk1 pk2 pk3 pk4 pk5 OP_5 OP_CHAECKMULTISIG

Keys: <priv> : <pub>
  237594 : 03ec38c34b4c9d5f881ebd12d977e82471c113ddf3bf8f806743454de8d699729e
  23485759239 : 023167c5e0cc57b25228b213ba177f3cf56f28d3cb4224f5ec72b1ec780f2a12dc
  1234 : 02e37648435c60dcd181b3d41d50857ba5b5abebe279429aa76558f6653f1658f2
  58463 : 02b0ff9dbb1a5bb72c02a90ca248bc5bf8759d39b7a8913bfc4d53521cafbfe4f3
  48294 : 02a265fe1e21e7dd6e998146b00dead98b9c7a240327b612a233145de15d9cd703

cUKEGuixjueXuwWoHe6rrm6h6a3FKdptWEPx9gczh3oVcT3TmzUu
cQKUSTcM7WKBRwgEGGiCXKMXRv5NbAXjXv53JGSeVzujHV9CRfk8
cSd3y9Q9EW86aVcG5tLr3uCQuTyrQuGwmLWseVCgthxi4fhbw2DQ

cReq7DM97q5cpx1LX8qHcWTESyYG7K7cXVd66PmMRKgQ8pxH8FQr
cPyHtvoA9fWrUT7oEaXugj82jXRiixasbM4n8M4AugayvZxeZENC
cPd9fy5vGDKwNw7CTmKVgoXTtcWMWaRiegQhNmhDeyBXaaWAqUdS

Getting each pubkey:
TERMINAL
---------------
>>> from coincurve import PrivateKey
>>> PrivateKey.from_int(237594).public_key.format().hex()
'03ec38c34b4c9d5f881ebd12d977e82471c113ddf3bf8f806743454de8d699729e'
---------------


2:
ad
  53
  21 03ec38c34b4c9d5f881ebd12d977e82471c113ddf3bf8f806743454de8d699729e
  21 023167c5e0cc57b25228b213ba177f3cf56f28d3cb4224f5ec72b1ec780f2a12dc
  21 02e37648435c60dcd181b3d41d50857ba5b5abebe279429aa76558f6653f1658f2
  21 02b0ff9dbb1a5bb72c02a90ca248bc5bf8759d39b7a8913bfc4d53521cafbfe4f3
  21 02a265fe1e21e7dd6e998146b00dead98b9c7a240327b612a233145de15d9cd703
  55
  ae
--------------
ad532103ec38c34b4c9d5f881ebd12d977e82471c113ddf3bf8f806743454de8d699729e21023167c5e0cc57b25228b213ba177f3cf56f28d3cb4224f5ec72b1ec780f2a12dc2102e37648435c60dcd181b3d41d50857ba5b5abebe279429aa76558f6653f1658f22102b0ff9dbb1a5bb72c02a90ca248bc5bf8759d39b7a8913bfc4d53521cafbfe4f32102a265fe1e21e7dd6e998146b00dead98b9c7a240327b612a233145de15d9cd70355ae



4:
** Using bitcoin-cli decodescript to get address **
address = tb1q08224jssphr32gr7ks7tlqlv375tjrsg059utwzmx7z03s3xpeqqql5502


5:

TX1:
00000000
01
  290179fa0369ba8fb389dafca0d605937567ae99a0849b14c0d1f2fdd3a02807
  01000000
  00
  feffffff
01
  3075000000000000
ad532103ec38c34b4c9d5f881ebd12d977e82471c113ddf3bf8f806743454de8d699729e21023167c5e0cc57b25228b213ba177f3cf56f28d3cb4224f5ec72b1ec780f2a12dc2102e37648435c60dcd181b3d41d50857ba5b5abebe279429aa76558f6653f1658f22102b0ff9dbb1a5bb72c02a90ca248bc5bf8759d39b7a8913bfc4d53521cafbfe4f32102a265fe1e21e7dd6e998146b00dead98b9c7a240327b612a233145de15d9cd70355ae
00000000

6:
0000000001290179fa0369ba8fb389dafca0d605937567ae99a0849b14c0d1f2fdd3a028070100000000feffffff013075000000000000ad532103ec38c34b4c9d5f881ebd12d977e82471c113ddf3bf8f806743454de8d699729e21023167c5e0cc57b25228b213ba177f3cf56f28d3cb4224f5ec72b1ec780f2a12dc2102e37648435c60dcd181b3d41d50857ba5b5abebe279429aa76558f6653f1658f22102b0ff9dbb1a5bb72c02a90ca248bc5bf8759d39b7a8913bfc4d53521cafbfe4f32102a265fe1e21e7dd6e998146b00dead98b9c7a240327b612a233145de15d9cd70355ae00000000

7:
00000000000101290179fa0369ba8fb389dafca0d605937567ae99a0849b14c0d1f2fdd3a028070100000000feffffff013075000000000000ad532103ec38c34b4c9d5f881ebd12d977e82471c113ddf3bf8f806743454de8d699729e21023167c5e0cc57b25228b213ba177f3cf56f28d3cb4224f5ec72b1ec780f2a12dc2102e37648435c60dcd181b3d41d50857ba5b5abebe279429aa76558f6653f1658f22102b0ff9dbb1a5bb72c02a90ca248bc5bf8759d39b7a8913bfc4d53521cafbfe4f32102a265fe1e21e7dd6e998146b00dead98b9c7a240327b612a233145de15d9cd70355ae02473044022015abbea61080d5818c1d9826d2ab57b8ccb79dbf05c93d85ef0e33def9f8fed20220326e815e2ff4c3bdfb4cf09441cea690c1a8fd9e454b71b7d34d60ad2609650a012103a0d912ff1bc735aa45cb6e560a28a1ae028c2e08df1d8bf4d8aa5c1b94448fda00000000

8:
32dad5a8575d8ab6efe6e45b3fdb395d5f032ae396a9b15d1a92ba809dd86128

9:
TX2
01000000
  01
  2861d89d80ba921a5db1a996e32a035f5d39db3f5be4e6efb68a5d57a8d5da32
  00000000
  00
  feffffff
01
  204e000000000000
  16 0014f2029694e7805b954e567152085ba260abe072f5
00000000

10:
01000000012861d89d80ba921a5db1a996e32a035f5d39db3f5be4e6efb68a5d57a8d5da320000000000feffffff01204e000000000000160014f2029694e7805b954e567152085ba260abe072f500000000


BUILDING SIGHASH:

SIGHASH:
version: 00000000
hashPrevOuts: b76f1d7b474e664526c0bb5e27be48a45c2abbb25cef1be02b56be4b52468c67
hashSequence: 18606b350cd8bf565266bc352f0caddcf01e8fa789dd8a15386327cf8cabe198
outpoint: 290179fa0369ba8fb389dafca0d605937567ae99a0849b14c0d1f2fdd3a0280701000000
scriptCode: 
ad532103ec38c34b4c9d5f881ebd12d977e82471c113ddf3bf8f806743454de8d699729e21023167c5e0cc57b25228b213ba177f3cf56f28d3cb4224f5ec72b1ec780f2a12dc2102e37648435c60dcd181b3d41d50857ba5b5abebe279429aa76558f6653f1658f22102b0ff9dbb1a5bb72c02a90ca248bc5bf8759d39b7a8913bfc4d53521cafbfe4f32102a265fe1e21e7dd6e998146b00dead98b9c7a240327b612a233145de15d9cd70355ae
amount: 3075000000000000
sequence: feffffff
hashOutputs: 852ec798c5711a278cce78dc92dc0e26de0bc99a9ccbd2ffbb71bdbbe7c451e7
nLocktime: 00000000
sighashType: 01000000


00000000b76f1d7b474e664526c0bb5e27be48a45c2abbb25cef1be02b56be4b52468c6718606b350cd8bf565266bc352f0caddcf01e8fa789dd8a15386327cf8cabe198290179fa0369ba8fb389dafca0d605937567ae99a0849b14c0d1f2fdd3a0280701000000ad532103ec38c34b4c9d5f881ebd12d977e82471c113ddf3bf8f806743454de8d699729e21023167c5e0cc57b25228b213ba177f3cf56f28d3cb4224f5ec72b1ec780f2a12dc2102e37648435c60dcd181b3d41d50857ba5b5abebe279429aa76558f6653f1658f22102b0ff9dbb1a5bb72c02a90ca248bc5bf8759d39b7a8913bfc4d53521cafbfe4f32102a265fe1e21e7dd6e998146b00dead98b9c7a240327b612a233145de15d9cd70355ae3075000000000000feffffff852ec798c5711a278cce78dc92dc0e26de0bc99a9ccbd2ffbb71bdbbe7c451e70000000001000000

msg = b3d789e946bac3eb35da87fec669ca6b28a9742b25ddb1c9db1321955e43126b

getting PK's from message
TERMINAL
------------------
>>> from coincurve import PrivateKey
>>> msg = bytes.fromhex('b3d789e946bac3eb35da87fec669ca6b28a9742b25ddb1c9db1321955e43126b')
>>> pk1 = PrivateKey.from_int(237594)
>>> pk1.sign(msg, hasher=None).hex()
'3045022100e4225735820ab43a780e24e0402847cde31775819e7daa415c158c55b7ee0e700220389d34e1f063146b51e5f3002141644d20f90091b7cf09a0f3fa8364ea335f94'
------------------

privkeys to sign with:
237594
23485759239
1234

** add sighash flag at the end 01 **

privkeys:
3045022100e4225735820ab43a780e24e0402847cde31775819e7daa415c158c55b7ee0e700220389d34e1f063146b51e5f3002141644d20f90091b7cf09a0f3fa8364ea335f9401

30450221009663229234a8038ab3dab7656566bff48085775c9ff5e53b7f17281201799c9602204c3d4b91b5504c65f2026483707cad56be7b4b41de69560f77d64996bf187cf301

30450221008091284fe6876c6d27090a95a81136111c0dda964ba52bbc8cc8214db8d52578022003674d5d3446bf070b263a9b843046b23fd0f5ba898b6ccb28d17329bcc77d7b01

BUILDING WITNESS STACKS:
format:
<num of stacks>
<0> <----- Off by one error
<sig>
<sig>
<sig>
<originalscript>

witness stacks:

05

00

48 3045022100e4225735820ab43a780e24e0402847cde31775819e7daa415c158c55b7ee0e700220389d34e1f063146b51e5f3002141644d20f90091b7cf09a0f3fa8364ea335f9401

48
30450221009663229234a8038ab3dab7656566bff48085775c9ff5e53b7f17281201799c9602204c3d4b91b5504c65f2026483707cad56be7b4b41de69560f77d64996bf187cf301

48
30450221008091284fe6876c6d27090a95a81136111c0dda964ba52bbc8cc8214db8d52578022003674d5d3446bf070b263a9b843046b23fd0f5ba898b6ccb28d17329bcc77d7b01

ad 532103ec38c34b4c9d5f881ebd12d977e82471c113ddf3bf8f806743454de8d699729e21023167c5e0cc57b25228b213ba177f3cf56f28d3cb4224f5ec72b1ec780f2a12dc2102e37648435c60dcd181b3d41d50857ba5b5abebe279429aa76558f6653f1658f22102b0ff9dbb1a5bb72c02a90ca248bc5bf8759d39b7a8913bfc4d53521cafbfe4f32102a265fe1e21e7dd6e998146b00dead98b9c7a240327b612a233145de15d9cd70355ae

witness stacks blob:
0500483045022100e4225735820ab43a780e24e0402847cde31775819e7daa415c158c55b7ee0e700220389d34e1f063146b51e5f3002141644d20f90091b7cf09a0f3fa8364ea335f94014830450221009663229234a8038ab3dab7656566bff48085775c9ff5e53b7f17281201799c9602204c3d4b91b5504c65f2026483707cad56be7b4b41de69560f77d64996bf187cf3014830450221008091284fe6876c6d27090a95a81136111c0dda964ba52bbc8cc8214db8d52578022003674d5d3446bf070b263a9b843046b23fd0f5ba898b6ccb28d17329bcc77d7b01ad532103ec38c34b4c9d5f881ebd12d977e82471c113ddf3bf8f806743454de8d699729e21023167c5e0cc57b25228b213ba177f3cf56f28d3cb4224f5ec72b1ec780f2a12dc2102e37648435c60dcd181b3d41d50857ba5b5abebe279429aa76558f6653f1658f22102b0ff9dbb1a5bb72c02a90ca248bc5bf8759d39b7a8913bfc4d53521cafbfe4f32102a265fe1e21e7dd6e998146b00dead98b9c7a240327b612a233145de15d9cd70355ae

11:
01000000
0001
  01
  2861d89d80ba921a5db1a996e32a035f5d39db3f5be4e6efb68a5d57a8d5da32
  00000000
  00
  feffffff
01
  204e000000000000
  16 0014f2029694e7805b954e567152085ba260abe072f5
0500483045022100e4225735820ab43a780e24e0402847cde31775819e7daa415c158c55b7ee0e700220389d34e1f063146b51e5f3002141644d20f90091b7cf09a0f3fa8364ea335f94014830450221009663229234a8038ab3dab7656566bff48085775c9ff5e53b7f17281201799c9602204c3d4b91b5504c65f2026483707cad56be7b4b41de69560f77d64996bf187cf3014830450221008091284fe6876c6d27090a95a81136111c0dda964ba52bbc8cc8214db8d52578022003674d5d3446bf070b263a9b843046b23fd0f5ba898b6ccb28d17329bcc77d7b01ad532103ec38c34b4c9d5f881ebd12d977e82471c113ddf3bf8f806743454de8d699729e21023167c5e0cc57b25228b213ba177f3cf56f28d3cb4224f5ec72b1ec780f2a12dc2102e37648435c60dcd181b3d41d50857ba5b5abebe279429aa76558f6653f1658f22102b0ff9dbb1a5bb72c02a90ca248bc5bf8759d39b7a8913bfc4d53521cafbfe4f32102a265fe1e21e7dd6e998146b00dead98b9c7a240327b612a233145de15d9cd70355ae
00000000

010000000001012861d89d80ba921a5db1a996e32a035f5d39db3f5be4e6efb68a5d57a8d5da320000000000feffffff01204e000000000000160014f2029694e7805b954e567152085ba260abe072f50500483045022100e4225735820ab43a780e24e0402847cde31775819e7daa415c158c55b7ee0e700220389d34e1f063146b51e5f3002141644d20f90091b7cf09a0f3fa8364ea335f94014830450221009663229234a8038ab3dab7656566bff48085775c9ff5e53b7f17281201799c9602204c3d4b91b5504c65f2026483707cad56be7b4b41de69560f77d64996bf187cf3014830450221008091284fe6876c6d27090a95a81136111c0dda964ba52bbc8cc8214db8d52578022003674d5d3446bf070b263a9b843046b23fd0f5ba898b6ccb28d17329bcc77d7b01ad532103ec38c34b4c9d5f881ebd12d977e82471c113ddf3bf8f806743454de8d699729e21023167c5e0cc57b25228b213ba177f3cf56f28d3cb4224f5ec72b1ec780f2a12dc2102e37648435c60dcd181b3d41d50857ba5b5abebe279429aa76558f6653f1658f22102b0ff9dbb1a5bb72c02a90ca248bc5bf8759d39b7a8913bfc4d53521cafbfe4f32102a265fe1e21e7dd6e998146b00dead98b9c7a240327b612a233145de15d9cd70355ae00000000