1:
scriptPubKey format:
OP_3 pk1 pk2 pk3 pk4 pk5 OP_5 OP_CHAECKMULTISIG

scriptSig format:
<00>
<sig1>
<sig2>
<sig3>
<redeemscript>

Keys: <priv> : <pub>
  333 : 030b06f702f47b22d789a9bd3f687105c36160abbf5cc8976b7fbddcafdb197b5c
  666 : 037f75c66c45a52c35ead5970bbfaafdfba626a6ddceabc14e0f8a8c7d88a5772b
  89 : 02d3cc30ad6b483e4bc79ce2c9dd8bc54993e947eb8df787b442943d3f7b527eaf
  9992929 : 02deb4c30348056b9e30c3569a60b3b1e9107d14a155338812b6d5227aacc3d26c
  37362847 : 033614c2eb024bc957109600eff7cf1ccea3eca2ee3423b82e537e03602be689d0


666 = cMahea7zqjxrtgAbB7LSGbcQUr1uX1ojuat9jZodMN8MMnwFwKi7
89 = cMahea7zqjxrtgAbB7LSGbcQUr1uX1ojuat9jZodMN88ULbW7Eij
9992929 = cMahea7zqjxrtgAbB7LSGbcQUr1uX1ojuat9jZodUT7eURtkymza

Getting each pubkey:
TERMINAL
---------------
>>> from coincurve import PrivateKey
>>> PrivateKey.from_int(333).public_key.format().hex()
'030b06f702f47b22d789a9bd3f687105c36160abbf5cc8976b7fbddcafdb197b5c'
---------------


2:
ad
  53
  21 030b06f702f47b22d789a9bd3f687105c36160abbf5cc8976b7fbddcafdb197b5c
  21 037f75c66c45a52c35ead5970bbfaafdfba626a6ddceabc14e0f8a8c7d88a5772b
  21 02d3cc30ad6b483e4bc79ce2c9dd8bc54993e947eb8df787b442943d3f7b527eaf
  21 02deb4c30348056b9e30c3569a60b3b1e9107d14a155338812b6d5227aacc3d26c
  21 033614c2eb024bc957109600eff7cf1ccea3eca2ee3423b82e537e03602be689d0
  55
  ae
--------------

5321030b06f702f47b22d789a9bd3f687105c36160abbf5cc8976b7fbddcafdb197b5c21037f75c66c45a52c35ead5970bbfaafdfba626a6ddceabc14e0f8a8c7d88a5772b2102d3cc30ad6b483e4bc79ce2c9dd8bc54993e947eb8df787b442943d3f7b527eaf2102deb4c30348056b9e30c3569a60b3b1e9107d14a155338812b6d5227aacc3d26c21033614c2eb024bc957109600eff7cf1ccea3eca2ee3423b82e537e03602be689d055ae


3:
00
47 304402204bc882f570952ab451e16ff127abbca7bef88a965fba374cfc4665909a89c53e02205854b902d9c8dfef0e9def4da94e2c9d58291161b591bc725abb87d2a3e81a0c01
48
3045022100d4d41242332ee3a297009c91a2d6cd9f632318997eced28582af04f0727c506a022075bb1ab08800ea8ff9152f5b97629cfa307a8e09acba5d144c4a3235b5544a7201
47
30440220095fba09b614a8e74ee34c6388fc4598bfaf88a638dc446eaced089acda4bef602200ef7d6060e31360f9d2b03801dcd1202f996efaa63a818e75d862cf9e39216d101
ad5321030b06f702f47b22d789a9bd3f687105c36160abbf5cc8976b7fbddcafdb197b5c21037f75c66c45a52c35ead5970bbfaafdfba626a6ddceabc14e0f8a8c7d88a5772b2102d3cc30ad6b483e4bc79ce2c9dd8bc54993e947eb8df787b442943d3f7b527eaf2102deb4c30348056b9e30c3569a60b3b1e9107d14a155338812b6d5227aacc3d26c21033614c2eb024bc957109600eff7cf1ccea3eca2ee3423b82e537e03602be689d055ae

4:
2NCxqpTcASNJjxfxoD8hFCB9XGfisiCKZ7z

5:
TX1:
02000000
0001
01
0d2268ffd3a123ca0ed59efda1ccdaeff363cc1418cc6aadc057a883c106cb79
00000000
00
feffffff
02
5815010000000000
220020bd7b8c10434d9d6e88e2950dd26b56d6b884305fb0c49205fd672cf912140f8c
4f03000000000000
16001411f9c0db049fb2198d87f8f12430365591c2d2110247
9cf72100

6:
020000000001010d2268ffd3a123ca0ed59efda1ccdaeff363cc1418cc6aadc057a883c106cb790000000000feffffff025815010000000000220020bd7b8c10434d9d6e88e2950dd26b56d6b884305fb0c49205fd672cf912140f8c4f0300000000000016001411f9c0db049fb2198d87f8f12430365591c2d21102479cf72100

7:
02000000
0001
01
0d2268ffd3a123ca0ed59efda1ccdaeff363cc1418cc6aadc057a883c106cb79
00000000
00
feffffff
02
5815010000000000
220020bd7b8c10434d9d6e88e2950dd26b56d6b884305fb0c49205fd672cf912140f8c
4f03000000000000
16001411f9c0db049fb2198d87f8f12430365591c2d2110247
304402201934acd39a89ec387ba3ae6e946e7e767a1a7a4fd947d5818ad8cb541aa6a1d40220738d205b58814b7ab0ab656a1036b46dc7644040265c0e71192614fb4f6d20860121
03f68773d5a12103189880061fc41427543bc3b95af3a4896e38ee8babbf76d95e
9cf72100

020000000001010d2268ffd3a123ca0ed59efda1ccdaeff363cc1418cc6aadc057a883c106cb790000000000feffffff025815010000000000220020bd7b8c10434d9d6e88e2950dd26b56d6b884305fb0c49205fd672cf912140f8c4f0300000000000016001411f9c0db049fb2198d87f8f12430365591c2d2110247304402201934acd39a89ec387ba3ae6e946e7e767a1a7a4fd947d5818ad8cb541aa6a1d40220738d205b58814b7ab0ab656a1036b46dc7644040265c0e71192614fb4f6d2086012103f68773d5a12103189880061fc41427543bc3b95af3a4896e38ee8babbf76d95e9cf72100

8:
471edd5c07af8e6f77f671bec8053d154a25fc0da0235ea716468bdf5bfe6dcb : 0



9:
01000000
01
  cb6dfe5bdf8b4616a75e23a00dfc254a153d05c8be71f6776f8eaf075cdd1e47
  00000000
  00
  feffffff
01
  1c25000000000000
  17160014e559bee66e86364c2cbb86e88d501bcd60d3e711
00000000

10:
0100000001cb6dfe5bdf8b4616a75e23a00dfc254a153d05c8be71f6776f8eaf075cdd1e470000000000feffffff011c2500000000000017160014e559bee66e86364c2cbb86e88d501bcd60d3e71100000000

11:
01000000
0001
01
  cb6dfe5bdf8b4616a75e23a00dfc254a153d05c8be71f6776f8eaf075cdd1e47
  00000000
  00
  feffffff
01
  1c25000000000000
  181600143ebee3a3401a3352cdde681b8426ddc2c2ae0dcfac
05
00
47 304402204bc882f570952ab451e16ff127abbca7bef88a965fba374cfc4665909a89c53e02205854b902d9c8dfef0e9def4da94e2c9d58291161b591bc725abb87d2a3e81a0c01
48
3045022100d4d41242332ee3a297009c91a2d6cd9f632318997eced28582af04f0727c506a022075bb1ab08800ea8ff9152f5b97629cfa307a8e09acba5d144c4a3235b5544a7201
47
30440220095fba09b614a8e74ee34c6388fc4598bfaf88a638dc446eaced089acda4bef602200ef7d6060e31360f9d2b03801dcd1202f996efaa63a818e75d862cf9e39216d101
ad5321030b06f702f47b22d789a9bd3f687105c36160abbf5cc8976b7fbddcafdb197b5c21037f75c66c45a52c35ead5970bbfaafdfba626a6ddceabc14e0f8a8c7d88a5772b2102d3cc30ad6b483e4bc79ce2c9dd8bc54993e947eb8df787b442943d3f7b527eaf2102deb4c30348056b9e30c3569a60b3b1e9107d14a155338812b6d5227aacc3d26c21033614c2eb024bc957109600eff7cf1ccea3eca2ee3423b82e537e03602be689d055ae
00000000

12:
5a4febddf03dfb81eda67234cc3dc9d9e47d793e84f9d4629bd5a1cd868fb395



*********************
SIGHASH CALCULATION
*********************
TX 2 for sighash
01000000
0001
01
  cb6dfe5bdf8b4616a75e23a00dfc254a153d05c8be71f6776f8eaf075cdd1e47
  00000000
  00
  feffffff
01
  1c25000000000000
  181600143ebee3a3401a3352cdde681b8426ddc2c2ae0dcfac
05
00
<sig>
<sig>
<sig>
ad5321030b06f702f47b22d789a9bd3f687105c36160abbf5cc8976b7fbddcafdb197b5c21037f75c66c45a52c35ead5970bbfaafdfba626a6ddceabc14e0f8a8c7d88a5772b2102d3cc30ad6b483e4bc79ce2c9dd8bc54993e947eb8df787b442943d3f7b527eaf2102deb4c30348056b9e30c3569a60b3b1e9107d14a155338812b6d5227aacc3d26c21033614c2eb024bc957109600eff7cf1ccea3eca2ee3423b82e537e03602be689d055ae
00000000


SIGHASH
version: 01000000
hashPrevouts: e2cdf27eb3faeac3fd62a1054498a35ed8ba346f6eb67fcbadf4bbac22ab56d5
hashSequence: 18606b350cd8bf565266bc352f0caddcf01e8fa789dd8a15386327cf8cabe198
outpoint: cb6dfe5bdf8b4616a75e23a00dfc254a153d05c8be71f6776f8eaf075cdd1e4700000000
scriptCode: ad5321030b06f702f47b22d789a9bd3f687105c36160abbf5cc8976b7fbddcafdb197b5c21037f75c66c45a52c35ead5970bbfaafdfba626a6ddceabc14e0f8a8c7d88a5772b2102d3cc30ad6b483e4bc79ce2c9dd8bc54993e947eb8df787b442943d3f7b527eaf2102deb4c30348056b9e30c3569a60b3b1e9107d14a155338812b6d5227aacc3d26c21033614c2eb024bc957109600eff7cf1ccea3eca2ee3423b82e537e03602be689d055ae
amount: 5815010000000000
sequence: feffffff
hashOutputs: a2913226588e1fe56a66c43befb8f70f23b24c0473b8fb53537d164dba5b42f4
locktime: 00000000
sighash: 01000000

01000000e2cdf27eb3faeac3fd62a1054498a35ed8ba346f6eb67fcbadf4bbac22ab56d518606b350cd8bf565266bc352f0caddcf01e8fa789dd8a15386327cf8cabe198cb6dfe5bdf8b4616a75e23a00dfc254a153d05c8be71f6776f8eaf075cdd1e4700000000ad5321030b06f702f47b22d789a9bd3f687105c36160abbf5cc8976b7fbddcafdb197b5c21037f75c66c45a52c35ead5970bbfaafdfba626a6ddceabc14e0f8a8c7d88a5772b2102d3cc30ad6b483e4bc79ce2c9dd8bc54993e947eb8df787b442943d3f7b527eaf2102deb4c30348056b9e30c3569a60b3b1e9107d14a155338812b6d5227aacc3d26c21033614c2eb024bc957109600eff7cf1ccea3eca2ee3423b82e537e03602be689d055ae5815010000000000feffffffa2913226588e1fe56a66c43befb8f70f23b24c0473b8fb53537d164dba5b42f40000000001000000

msg = 4acd30b62db46c289838a0770190201e9aa65123eb36308a200f295baa808b39

pk2: 47 304402204bc882f570952ab451e16ff127abbca7bef88a965fba374cfc4665909a89c53e02205854b902d9c8dfef0e9def4da94e2c9d58291161b591bc725abb87d2a3e81a0c01

pk3: 48
3045022100d4d41242332ee3a297009c91a2d6cd9f632318997eced28582af04f0727c506a022075bb1ab08800ea8ff9152f5b97629cfa307a8e09acba5d144c4a3235b5544a7201

pk4: 47
30440220095fba09b614a8e74ee34c6388fc4598bfaf88a638dc446eaced089acda4bef602200ef7d6060e31360f9d2b03801dcd1202f996efaa63a818e75d862cf9e39216d101



0200000001cb6dfe5bdf8b4616a75e23a00dfc254a153d05c8be71f6776f8eaf075cdd1e470000000000ffffffff011027000000000000160014c74dd2977a76e2c7500e032b58ee5b7c5863a20d00000000


TX2 signed
01000000
0001
01
  cb6dfe5bdf8b4616a75e23a00dfc254a153d05c8be71f6776f8eaf075cdd1e47
  00000000
  00
  feffffff
01
  1c25000000000000
  181600143ebee3a3401a3352cdde681b8426ddc2c2ae0dcfac
05
00
47 304402204bc882f570952ab451e16ff127abbca7bef88a965fba374cfc4665909a89c53e02205854b902d9c8dfef0e9def4da94e2c9d58291161b591bc725abb87d2a3e81a0c01
48
3045022100d4d41242332ee3a297009c91a2d6cd9f632318997eced28582af04f0727c506a022075bb1ab08800ea8ff9152f5b97629cfa307a8e09acba5d144c4a3235b5544a7201
47
30440220095fba09b614a8e74ee34c6388fc4598bfaf88a638dc446eaced089acda4bef602200ef7d6060e31360f9d2b03801dcd1202f996efaa63a818e75d862cf9e39216d101
ad5321030b06f702f47b22d789a9bd3f687105c36160abbf5cc8976b7fbddcafdb197b5c21037f75c66c45a52c35ead5970bbfaafdfba626a6ddceabc14e0f8a8c7d88a5772b2102d3cc30ad6b483e4bc79ce2c9dd8bc54993e947eb8df787b442943d3f7b527eaf2102deb4c30348056b9e30c3569a60b3b1e9107d14a155338812b6d5227aacc3d26c21033614c2eb024bc957109600eff7cf1ccea3eca2ee3423b82e537e03602be689d055ae
00000000

01000000000101cb6dfe5bdf8b4616a75e23a00dfc254a153d05c8be71f6776f8eaf075cdd1e470000000000feffffff011c25000000000000181600143ebee3a3401a3352cdde681b8426ddc2c2ae0dcfac050047304402204bc882f570952ab451e16ff127abbca7bef88a965fba374cfc4665909a89c53e02205854b902d9c8dfef0e9def4da94e2c9d58291161b591bc725abb87d2a3e81a0c01483045022100d4d41242332ee3a297009c91a2d6cd9f632318997eced28582af04f0727c506a022075bb1ab08800ea8ff9152f5b97629cfa307a8e09acba5d144c4a3235b5544a72014730440220095fba09b614a8e74ee34c6388fc4598bfaf88a638dc446eaced089acda4bef602200ef7d6060e31360f9d2b03801dcd1202f996efaa63a818e75d862cf9e39216d101ad5321030b06f702f47b22d789a9bd3f687105c36160abbf5cc8976b7fbddcafdb197b5c21037f75c66c45a52c35ead5970bbfaafdfba626a6ddceabc14e0f8a8c7d88a5772b2102d3cc30ad6b483e4bc79ce2c9dd8bc54993e947eb8df787b442943d3f7b527eaf2102deb4c30348056b9e30c3569a60b3b1e9107d14a155338812b6d5227aacc3d26c21033614c2eb024bc957109600eff7cf1ccea3eca2ee3423b82e537e03602be689d055ae00000000



15:18:14
￼
sendrawtransaction 01000000000101cb6dfe5bdf8b4616a75e23a00dfc254a153d05c8be71f6776f8eaf075cdd1e470000000000feffffff011c25000000000000181600143ebee3a3401a3352cdde681b8426ddc2c2ae0dcfac050047304402204bc882f570952ab451e16ff127abbca7bef88a965fba374cfc4665909a89c53e02205854b902d9c8dfef0e9def4da94e2c9d58291161b591bc725abb87d2a3e81a0c01483045022100d4d41242332ee3a297009c91a2d6cd9f632318997eced28582af04f0727c506a022075bb1ab08800ea8ff9152f5b97629cfa307a8e09acba5d144c4a3235b5544a72014730440220095fba09b614a8e74ee34c6388fc4598bfaf88a638dc446eaced089acda4bef602200ef7d6060e31360f9d2b03801dcd1202f996efaa63a818e75d862cf9e39216d101ad5321030b06f702f47b22d789a9bd3f687105c36160abbf5cc8976b7fbddcafdb197b5c21037f75c66c45a52c35ead5970bbfaafdfba626a6ddceabc14e0f8a8c7d88a5772b2102d3cc30ad6b483e4bc79ce2c9dd8bc54993e947eb8df787b442943d3f7b527eaf2102deb4c30348056b9e30c3569a60b3b1e9107d14a155338812b6d5227aacc3d26c21033614c2eb024bc957109600eff7cf1ccea3eca2ee3423b82e537e03602be689d055ae00000000


15:18:14
￼
5a4febddf03dfb81eda67234cc3dc9d9e47d793e84f9d4629bd5a1cd868fb395

