scriptPubKey format:
OP_3 pk1 pk2 pk3 pk4 pk5 OP_5 OP_CHAECKMULTISIG

Keys: <priv> : <pub>
  237594 : 03ec38c34b4c9d5f881ebd12d977e82471c113ddf3bf8f806743454de8d699729e
  23485759239 : 023167c5e0cc57b25228b213ba177f3cf56f28d3cb4224f5ec72b1ec780f2a12dc
  1234 : 02e37648435c60dcd181b3d41d50857ba5b5abebe279429aa76558f6653f1658f2
  58463 : 02b0ff9dbb1a5bb72c02a90ca248bc5bf8759d39b7a8913bfc4d53521cafbfe4f3
  48294 : 02a265fe1e21e7dd6e998146b00dead98b9c7a240327b612a233145de15d9cd703

cMahea7zqjxrtgAbB7LSGbcQUr1uX1ojuat9jZodMU47GXRMANdS
cMahea7zqjxrtgAbB7LSGbcQUr1uX1ojuat9jaMLsRkcNBajA2nr
cMahea7zqjxrtgAbB7LSGbcQUr1uX1ojuat9jZodMN8oJfDUm7bo

Getting each pubkey:
TERMINAL
---------------
>>> from coincurve import PrivateKey
>>> PrivateKey.from_int(237594).public_key.format().hex()
'03ec38c34b4c9d5f881ebd12d977e82471c113ddf3bf8f806743454de8d699729e'
---------------


2:
ad
  53
  21 03ec38c34b4c9d5f881ebd12d977e82471c113ddf3bf8f806743454de8d699729e
  21 023167c5e0cc57b25228b213ba177f3cf56f28d3cb4224f5ec72b1ec780f2a12dc
  21 02e37648435c60dcd181b3d41d50857ba5b5abebe279429aa76558f6653f1658f2
  21 02b0ff9dbb1a5bb72c02a90ca248bc5bf8759d39b7a8913bfc4d53521cafbfe4f3
  21 02a265fe1e21e7dd6e998146b00dead98b9c7a240327b612a233145de15d9cd703
  55
  ae
--------------
4c ad 532103ec38c34b4c9d5f881ebd12d977e82471c113ddf3bf8f806743454de8d699729e21023167c5e0cc57b25228b213ba177f3cf56f28d3cb4224f5ec72b1ec780f2a12dc2102e37648435c60dcd181b3d41d50857ba5b5abebe279429aa76558f6653f1658f22102b0ff9dbb1a5bb72c02a90ca248bc5bf8759d39b7a8913bfc4d53521cafbfe4f32102a265fe1e21e7dd6e998146b00dead98b9c7a240327b612a233145de15d9cd70355ae

'[{"desc": "sh(wsh(multi(3,03ec38c34b4c9d5f881ebd12d977e82471c113ddf3bf8f806743454de8d699729e,023167c5e0cc57b25228b213ba177f3cf56f28d3cb4224f5ec72b1ec780f2a12dc,02e37648435c60dcd181b3d41d50857ba5b5abebe279429aa76558f6653f1658f2,02b0ff9dbb1a5bb72c02a90ca248bc5bf8759d39b7a8913bfc4d53521cafbfe4f3,02a265fe1e21e7dd6e998146b00dead98b9c7a240327b612a233145de15d9cd703)))#8gga2qge", "timestamp": "now", "watchonly": true}]'

4:
** Using bitcoin-cli decodescript to get address **
address = 2MyENf4d9UWW2Nz6QHxnNjZJuA6MyrFS29n

{
  "asm": "3 03ec38c34b4c9d5f881ebd12d977e82471c113ddf3bf8f806743454de8d699729e 023167c5e0cc57b25228b213ba177f3cf56f28d3cb4224f5ec72b1ec780f2a12dc 02e37648435c60dcd181b3d41d50857ba5b5abebe279429aa76558f6653f1658f2 02b0ff9dbb1a5bb72c02a90ca248bc5bf8759d39b7a8913bfc4d53521cafbfe4f3 02a265fe1e21e7dd6e998146b00dead98b9c7a240327b612a233145de15d9cd703 5 OP_CHECKMULTISIG",
  "type": "multisig",
  "p2sh": "2N9TPQrV71TWVRvyke41QAgr54NzcDoJFvS",
  "segwit": {
    "asm": "0 79d4aaca100dc715207eb43cbf83ec8fa8b90e087d0bc5b85b3784f8c2260e40",
    "hex": "002079d4aaca100dc715207eb43cbf83ec8fa8b90e087d0bc5b85b3784f8c2260e40",
    "address": "tb1q08224jssphr32gr7ks7tlqlv375tjrsg059utwzmx7z03s3xpeqqql5502",
    "type": "witness_v0_scripthash",
    "p2sh-segwit": "2MyENf4d9UWW2Nz6QHxnNjZJuA6MyrFS29n"
  }
}


7:
02000000
0001
01
0bb0be8aff778c18e8d43e30c0732d115f98fc39978836147988e2156dc41e3b
01000000
00
feffffff
02
a2f1000000000000
1600144099150ae7ff5e91019bb4485fa23ae64196944d
1027000000000000
17a91441a7932eb4aa60b52bc5869827a69170c6fd1cda87
02
47304402205c55a9ce3f022ba3909aa311dd41a2e0f13df0bbb6038c4de7992efd0297061c02201bd2a3cc5e73d75d449981ba2700ba8968755fe29bee5f709a0def84d5e3383701
21 039b8cb1f572127c22b3b4fed85f892a0e5876775c3f1a48a01ab612ef5b73c1ef
4bf72100

8:
d2d9091e73edb1db38d1b70ec664fcb5fbc96209940734809581489cf7cfdc88

9:
TX2
02000000
  01
  88dccff79c488195803407940962c9fbb5fc64c60eb7d138dbb1ed731e09d9d2
  01000000
  00
  feffffff
01
  1c25000000000000
  16 0014f2029694e7805b954e567152085ba260abe072f5
00000000

10:
020000000188dccff79c488195803407940962c9fbb5fc64c60eb7d138dbb1ed731e09d9d20100000000feffffff011c25000000000000160014f2029694e7805b954e567152085ba260abe072f500000000


02000000
0001
01
88dccff79c488195803407940962c9fbb5fc64c60eb7d138dbb1ed731e09d9d2
01000000
2322002079d4aaca100dc715207eb43cbf83ec8fa8b90e087d0bc5b85b3784f8c2260e40
feffffff
01
1c25000000000000
160014f2029694e7805b954e567152085ba260abe072f5
014cad532103ec38c34b4c9d5f881ebd12d977e82471c113ddf3bf8f806743454de8d699729e21023167c5e0cc57b25228b213ba177f3cf56f28d3cb4224f5ec72b1ec780f2a12dc2102e37648435c60dcd181b3d41d50857ba5b5abebe279429aa76558f6653f1658f22102b0ff9dbb1a5bb72c02a90ca248bc5bf8759d39b7a8913bfc4d53521cafbfe4f32102a265fe1e21e7dd6e998146b00dead98b9c7a240327b612a233145de15d9cd70355ae
00000000

02000000
0001
01
88dccff79c488195803407940962c9fbb5fc64c60eb7d138dbb1ed731e09d9d2
01000000
2322002079d4aaca100dc715207eb43cbf83ec8fa8b90e087d0bc5b85b3784f8c2260e40
feffffff
01
1c25000000000000
160014f2029694e7805b954e567152085ba260abe072f5
01ad532103ec38c34b4c9d5f881ebd12d977e82471c113ddf3bf8f806743454de8d699729e21023167c5e0cc57b25228b213ba177f3cf56f28d3cb4224f5ec72b1ec780f2a12dc2102e37648435c60dcd181b3d41d50857ba5b5abebe279429aa76558f6653f1658f22102b0ff9dbb1a5bb72c02a90ca248bc5bf8759d39b7a8913bfc4d53521cafbfe4f32102a265fe1e21e7dd6e998146b00dead98b9c7a240327b612a233145de15d9cd70355ae
00000000

0200000000010188dccff79c488195803407940962c9fbb5fc64c60eb7d138dbb1ed731e09d9d2010000002322002079d4aaca100dc715207eb43cbf83ec8fa8b90e087d0bc5b85b3784f8c2260e40feffffff011c25000000000000160014f2029694e7805b954e567152085ba260abe072f50200ad532103ec38c34b4c9d5f881ebd12d977e82471c113ddf3bf8f806743454de8d699729e21023167c5e0cc57b25228b213ba177f3cf56f28d3cb4224f5ec72b1ec780f2a12dc2102e37648435c60dcd181b3d41d50857ba5b5abebe279429aa76558f6653f1658f22102b0ff9dbb1a5bb72c02a90ca248bc5bf8759d39b7a8913bfc4d53521cafbfe4f32102a265fe1e21e7dd6e998146b00dead98b9c7a240327b612a233145de15d9cd70355ae00000000



cHNidP8BAFMCAAAAAYjcz/ecSIGVgDQHlAliyfu1/GTGDrfRONux7XMeCdnSAQAAAAD/////ARwlAAAAAAAAF6kUQaeTLrSqYLUrxYaYJ6aRcMb9HNqHAAAAAAAAAA==



BUILDING SIGHASH:

SIGHASH:
version: 00000000
hashPrevOuts: b76f1d7b474e664526c0bb5e27be48a45c2abbb25cef1be02b56be4b52468c67
hashSequence: 18606b350cd8bf565266bc352f0caddcf01e8fa789dd8a15386327cf8cabe198
outpoint: 290179fa0369ba8fb389dafca0d605937567ae99a0849b14c0d1f2fdd3a0280701000000
scriptCode: 
ad532103ec38c34b4c9d5f881ebd12d977e82471c113ddf3bf8f806743454de8d699729e21023167c5e0cc57b25228b213ba177f3cf56f28d3cb4224f5ec72b1ec780f2a12dc2102e37648435c60dcd181b3d41d50857ba5b5abebe279429aa76558f6653f1658f22102b0ff9dbb1a5bb72c02a90ca248bc5bf8759d39b7a8913bfc4d53521cafbfe4f32102a265fe1e21e7dd6e998146b00dead98b9c7a240327b612a233145de15d9cd70355ae
amount: 3075000000000000
sequence: feffffff
hashOutputs: 852ec798c5711a278cce78dc92dc0e26de0bc99a9ccbd2ffbb71bdbbe7c451e7
nLocktime: 00000000
sighashType: 01000000


00000000b76f1d7b474e664526c0bb5e27be48a45c2abbb25cef1be02b56be4b52468c6718606b350cd8bf565266bc352f0caddcf01e8fa789dd8a15386327cf8cabe198290179fa0369ba8fb389dafca0d605937567ae99a0849b14c0d1f2fdd3a0280701000000ad532103ec38c34b4c9d5f881ebd12d977e82471c113ddf3bf8f806743454de8d699729e21023167c5e0cc57b25228b213ba177f3cf56f28d3cb4224f5ec72b1ec780f2a12dc2102e37648435c60dcd181b3d41d50857ba5b5abebe279429aa76558f6653f1658f22102b0ff9dbb1a5bb72c02a90ca248bc5bf8759d39b7a8913bfc4d53521cafbfe4f32102a265fe1e21e7dd6e998146b00dead98b9c7a240327b612a233145de15d9cd70355ae3075000000000000feffffff852ec798c5711a278cce78dc92dc0e26de0bc99a9ccbd2ffbb71bdbbe7c451e70000000001000000

msg = b3d789e946bac3eb35da87fec669ca6b28a9742b25ddb1c9db1321955e43126b

getting PK's from message
TERMINAL
------------------
>>> from coincurve import PrivateKey
>>> msg = bytes.fromhex('b3d789e946bac3eb35da87fec669ca6b28a9742b25ddb1c9db1321955e43126b')
>>> pk1 = PrivateKey.from_int(237594)
>>> pk1.sign(msg, hasher=None).hex()
'3045022100e4225735820ab43a780e24e0402847cde31775819e7daa415c158c55b7ee0e700220389d34e1f063146b51e5f3002141644d20f90091b7cf09a0f3fa8364ea335f94'
------------------

privkeys to sign with:
237594
23485759239
1234

** add sighash flag at the end 01 **

privkeys:
3045022100e4225735820ab43a780e24e0402847cde31775819e7daa415c158c55b7ee0e700220389d34e1f063146b51e5f3002141644d20f90091b7cf09a0f3fa8364ea335f9401

30450221009663229234a8038ab3dab7656566bff48085775c9ff5e53b7f17281201799c9602204c3d4b91b5504c65f2026483707cad56be7b4b41de69560f77d64996bf187cf301

30450221008091284fe6876c6d27090a95a81136111c0dda964ba52bbc8cc8214db8d52578022003674d5d3446bf070b263a9b843046b23fd0f5ba898b6ccb28d17329bcc77d7b01

BUILDING WITNESS STACKS:
format:
<num of stacks>
<0> <----- Off by one error
<sig>
<sig>
<sig>
<originalscript>

witness stacks:

05

00

48 3045022100e4225735820ab43a780e24e0402847cde31775819e7daa415c158c55b7ee0e700220389d34e1f063146b51e5f3002141644d20f90091b7cf09a0f3fa8364ea335f9401

48
30450221009663229234a8038ab3dab7656566bff48085775c9ff5e53b7f17281201799c9602204c3d4b91b5504c65f2026483707cad56be7b4b41de69560f77d64996bf187cf301

48
30450221008091284fe6876c6d27090a95a81136111c0dda964ba52bbc8cc8214db8d52578022003674d5d3446bf070b263a9b843046b23fd0f5ba898b6ccb28d17329bcc77d7b01

ad 532103ec38c34b4c9d5f881ebd12d977e82471c113ddf3bf8f806743454de8d699729e21023167c5e0cc57b25228b213ba177f3cf56f28d3cb4224f5ec72b1ec780f2a12dc2102e37648435c60dcd181b3d41d50857ba5b5abebe279429aa76558f6653f1658f22102b0ff9dbb1a5bb72c02a90ca248bc5bf8759d39b7a8913bfc4d53521cafbfe4f32102a265fe1e21e7dd6e998146b00dead98b9c7a240327b612a233145de15d9cd70355ae

witness stacks blob:
0500483045022100e4225735820ab43a780e24e0402847cde31775819e7daa415c158c55b7ee0e700220389d34e1f063146b51e5f3002141644d20f90091b7cf09a0f3fa8364ea335f94014830450221009663229234a8038ab3dab7656566bff48085775c9ff5e53b7f17281201799c9602204c3d4b91b5504c65f2026483707cad56be7b4b41de69560f77d64996bf187cf3014830450221008091284fe6876c6d27090a95a81136111c0dda964ba52bbc8cc8214db8d52578022003674d5d3446bf070b263a9b843046b23fd0f5ba898b6ccb28d17329bcc77d7b01ad532103ec38c34b4c9d5f881ebd12d977e82471c113ddf3bf8f806743454de8d699729e21023167c5e0cc57b25228b213ba177f3cf56f28d3cb4224f5ec72b1ec780f2a12dc2102e37648435c60dcd181b3d41d50857ba5b5abebe279429aa76558f6653f1658f22102b0ff9dbb1a5bb72c02a90ca248bc5bf8759d39b7a8913bfc4d53521cafbfe4f32102a265fe1e21e7dd6e998146b00dead98b9c7a240327b612a233145de15d9cd70355ae

11:
01000000
0001
  01
  2861d89d80ba921a5db1a996e32a035f5d39db3f5be4e6efb68a5d57a8d5da32
  00000000
  00
  feffffff
01
  204e000000000000
  16 0014f2029694e7805b954e567152085ba260abe072f5
0500483045022100e4225735820ab43a780e24e0402847cde31775819e7daa415c158c55b7ee0e700220389d34e1f063146b51e5f3002141644d20f90091b7cf09a0f3fa8364ea335f94014830450221009663229234a8038ab3dab7656566bff48085775c9ff5e53b7f17281201799c9602204c3d4b91b5504c65f2026483707cad56be7b4b41de69560f77d64996bf187cf3014830450221008091284fe6876c6d27090a95a81136111c0dda964ba52bbc8cc8214db8d52578022003674d5d3446bf070b263a9b843046b23fd0f5ba898b6ccb28d17329bcc77d7b01ad532103ec38c34b4c9d5f881ebd12d977e82471c113ddf3bf8f806743454de8d699729e21023167c5e0cc57b25228b213ba177f3cf56f28d3cb4224f5ec72b1ec780f2a12dc2102e37648435c60dcd181b3d41d50857ba5b5abebe279429aa76558f6653f1658f22102b0ff9dbb1a5bb72c02a90ca248bc5bf8759d39b7a8913bfc4d53521cafbfe4f32102a265fe1e21e7dd6e998146b00dead98b9c7a240327b612a233145de15d9cd70355ae
00000000

010000000001012861d89d80ba921a5db1a996e32a035f5d39db3f5be4e6efb68a5d57a8d5da320000000000feffffff01204e000000000000160014f2029694e7805b954e567152085ba260abe072f50500483045022100e4225735820ab43a780e24e0402847cde31775819e7daa415c158c55b7ee0e700220389d34e1f063146b51e5f3002141644d20f90091b7cf09a0f3fa8364ea335f94014830450221009663229234a8038ab3dab7656566bff48085775c9ff5e53b7f17281201799c9602204c3d4b91b5504c65f2026483707cad56be7b4b41de69560f77d64996bf187cf3014830450221008091284fe6876c6d27090a95a81136111c0dda964ba52bbc8cc8214db8d52578022003674d5d3446bf070b263a9b843046b23fd0f5ba898b6ccb28d17329bcc77d7b01ad532103ec38c34b4c9d5f881ebd12d977e82471c113ddf3bf8f806743454de8d699729e21023167c5e0cc57b25228b213ba177f3cf56f28d3cb4224f5ec72b1ec780f2a12dc2102e37648435c60dcd181b3d41d50857ba5b5abebe279429aa76558f6653f1658f22102b0ff9dbb1a5bb72c02a90ca248bc5bf8759d39b7a8913bfc4d53521cafbfe4f32102a265fe1e21e7dd6e998146b00dead98b9c7a240327b612a233145de15d9cd70355ae00000000